{
  "contractName": "TournamentMatches",
  "abi": [
    {
      "constant": true,
      "inputs": [],
      "name": "currentMatch",
      "outputs": [
        {
          "name": "",
          "type": "uint256"
        }
      ],
      "payable": false,
      "stateMutability": "view",
      "type": "function"
    },
    {
      "constant": true,
      "inputs": [
        {
          "name": "",
          "type": "uint256"
        }
      ],
      "name": "matches",
      "outputs": [
        {
          "name": "playerOne",
          "type": "address"
        },
        {
          "name": "oneClaimed",
          "type": "bool"
        },
        {
          "name": "playerTwo",
          "type": "address"
        },
        {
          "name": "twoClaimed",
          "type": "bool"
        },
        {
          "name": "claim",
          "type": "address"
        },
        {
          "name": "winner",
          "type": "address"
        },
        {
          "name": "valid",
          "type": "bool"
        }
      ],
      "payable": false,
      "stateMutability": "view",
      "type": "function"
    },
    {
      "constant": true,
      "inputs": [],
      "name": "transfer",
      "outputs": [
        {
          "name": "",
          "type": "address"
        }
      ],
      "payable": false,
      "stateMutability": "view",
      "type": "function"
    },
    {
      "constant": true,
      "inputs": [],
      "name": "owner",
      "outputs": [
        {
          "name": "",
          "type": "address"
        }
      ],
      "payable": false,
      "stateMutability": "view",
      "type": "function"
    },
    {
      "inputs": [],
      "payable": false,
      "stateMutability": "nonpayable",
      "type": "constructor"
    },
    {
      "constant": false,
      "inputs": [
        {
          "name": "newOwner",
          "type": "address"
        }
      ],
      "name": "createOwnershipOffer",
      "outputs": [],
      "payable": false,
      "stateMutability": "nonpayable",
      "type": "function"
    },
    {
      "constant": false,
      "inputs": [],
      "name": "revokeOwnershipOffer",
      "outputs": [],
      "payable": false,
      "stateMutability": "nonpayable",
      "type": "function"
    },
    {
      "constant": false,
      "inputs": [],
      "name": "acceptOwnershipOffer",
      "outputs": [],
      "payable": false,
      "stateMutability": "nonpayable",
      "type": "function"
    },
    {
      "constant": false,
      "inputs": [
        {
          "name": "p1",
          "type": "address"
        },
        {
          "name": "p2",
          "type": "address"
        }
      ],
      "name": "createMatch",
      "outputs": [],
      "payable": false,
      "stateMutability": "nonpayable",
      "type": "function"
    },
    {
      "constant": false,
      "inputs": [
        {
          "name": "_match",
          "type": "uint256"
        },
        {
          "name": "status",
          "type": "bool"
        }
      ],
      "name": "validateMatch",
      "outputs": [],
      "payable": false,
      "stateMutability": "nonpayable",
      "type": "function"
    },
    {
      "constant": false,
      "inputs": [
        {
          "name": "_num",
          "type": "uint256"
        },
        {
          "name": "winner",
          "type": "address"
        }
      ],
      "name": "callMatch",
      "outputs": [],
      "payable": false,
      "stateMutability": "nonpayable",
      "type": "function"
    }
  ],
  "bytecode": "0x608060405234801561001057600080fd5b50336000806101000a81548173ffffffffffffffffffffffffffffffffffffffff021916908373ffffffffffffffffffffffffffffffffffffffff160217905550610f93806100606000396000f3fe6080604052600436106100a4576000357c0100000000000000000000000000000000000000000000000000000000900463ffffffff1680631e20530a146100a95780632c70444e1461011a5780632dc5dc57146101455780634768d4ef1461018c5780635f82a5d7146102c15780638a4068dd1461031c5780638da5cb5b146103735780639739db9d146103ca578063db4524291461041b578063f538534514610432575b600080fd5b3480156100b557600080fd5b50610118600480360360408110156100cc57600080fd5b81019080803573ffffffffffffffffffffffffffffffffffffffff169060200190929190803573ffffffffffffffffffffffffffffffffffffffff169060200190929190505050610449565b005b34801561012657600080fd5b5061012f6106c3565b6040518082815260200191505060405180910390f35b34801561015157600080fd5b5061018a6004803603604081101561016857600080fd5b81019080803590602001909291908035151590602001909291905050506106c9565b005b34801561019857600080fd5b506101c5600480360360208110156101af57600080fd5b8101908080359060200190929190505050610751565b604051808873ffffffffffffffffffffffffffffffffffffffff1673ffffffffffffffffffffffffffffffffffffffff168152602001871515151581526020018673ffffffffffffffffffffffffffffffffffffffff1673ffffffffffffffffffffffffffffffffffffffff168152602001851515151581526020018473ffffffffffffffffffffffffffffffffffffffff1673ffffffffffffffffffffffffffffffffffffffff1681526020018373ffffffffffffffffffffffffffffffffffffffff1673ffffffffffffffffffffffffffffffffffffffff1681526020018215151515815260200197505050505050505060405180910390f35b3480156102cd57600080fd5b5061031a600480360360408110156102e457600080fd5b8101908080359060200190929190803573ffffffffffffffffffffffffffffffffffffffff16906020019092919050505061083a565b005b34801561032857600080fd5b50610331610c91565b604051808273ffffffffffffffffffffffffffffffffffffffff1673ffffffffffffffffffffffffffffffffffffffff16815260200191505060405180910390f35b34801561037f57600080fd5b50610388610cb7565b604051808273ffffffffffffffffffffffffffffffffffffffff1673ffffffffffffffffffffffffffffffffffffffff16815260200191505060405180910390f35b3480156103d657600080fd5b50610419600480360360208110156103ed57600080fd5b81019080803573ffffffffffffffffffffffffffffffffffffffff169060200190929190505050610cdc565b005b34801561042757600080fd5b50610430610d76565b005b34801561043e57600080fd5b50610447610e10565b005b6000809054906101000a900473ffffffffffffffffffffffffffffffffffffffff1673ffffffffffffffffffffffffffffffffffffffff163373ffffffffffffffffffffffffffffffffffffffff1614156106bf576002600081548092919060010191905055506104b8610ecb565b82816000019073ffffffffffffffffffffffffffffffffffffffff16908173ffffffffffffffffffffffffffffffffffffffff168152505081816040019073ffffffffffffffffffffffffffffffffffffffff16908173ffffffffffffffffffffffffffffffffffffffff16815250508060036000600254815260200190815260200160002060008201518160000160006101000a81548173ffffffffffffffffffffffffffffffffffffffff021916908373ffffffffffffffffffffffffffffffffffffffff16021790555060208201518160000160146101000a81548160ff02191690831515021790555060408201518160010160006101000a81548173ffffffffffffffffffffffffffffffffffffffff021916908373ffffffffffffffffffffffffffffffffffffffff16021790555060608201518160010160146101000a81548160ff02191690831515021790555060808201518160020160006101000a81548173ffffffffffffffffffffffffffffffffffffffff021916908373ffffffffffffffffffffffffffffffffffffffff16021790555060a08201518160030160006101000a81548173ffffffffffffffffffffffffffffffffffffffff021916908373ffffffffffffffffffffffffffffffffffffffff16021790555060c08201518160030160146101000a81548160ff021916908315150217905550905050505b5050565b60025481565b6000809054906101000a900473ffffffffffffffffffffffffffffffffffffffff1673ffffffffffffffffffffffffffffffffffffffff163373ffffffffffffffffffffffffffffffffffffffff16141561074d57806003600084815260200190815260200160002060030160146101000a81548160ff0219169083151502179055505b5050565b60036020528060005260406000206000915090508060000160009054906101000a900473ffffffffffffffffffffffffffffffffffffffff16908060000160149054906101000a900460ff16908060010160009054906101000a900473ffffffffffffffffffffffffffffffffffffffff16908060010160149054906101000a900460ff16908060020160009054906101000a900473ffffffffffffffffffffffffffffffffffffffff16908060030160009054906101000a900473ffffffffffffffffffffffffffffffffffffffff16908060030160149054906101000a900460ff16905087565b60006003600084815260200190815260200160002090508060030160149054906101000a900460ff16151561086e57600080fd5b6000809054906101000a900473ffffffffffffffffffffffffffffffffffffffff1673ffffffffffffffffffffffffffffffffffffffff163373ffffffffffffffffffffffffffffffffffffffff1614156109505760008160020160006101000a81548173ffffffffffffffffffffffffffffffffffffffff021916908373ffffffffffffffffffffffffffffffffffffffff160217905550818160030160006101000a81548173ffffffffffffffffffffffffffffffffffffffff021916908373ffffffffffffffffffffffffffffffffffffffff16021790555050610c8d565b8060000160009054906101000a900473ffffffffffffffffffffffffffffffffffffffff1673ffffffffffffffffffffffffffffffffffffffff163373ffffffffffffffffffffffffffffffffffffffff1614806109fd57508060010160009054906101000a900473ffffffffffffffffffffffffffffffffffffffff1673ffffffffffffffffffffffffffffffffffffffff163373ffffffffffffffffffffffffffffffffffffffff16145b15610c7e5760008090508160000160009054906101000a900473ffffffffffffffffffffffffffffffffffffffff1673ffffffffffffffffffffffffffffffffffffffff163373ffffffffffffffffffffffffffffffffffffffff16148015610a7557508160000160149054906101000a900460ff16155b15610a9c5760018260000160146101000a81548160ff021916908315150217905550600190505b8160010160009054906101000a900473ffffffffffffffffffffffffffffffffffffffff1673ffffffffffffffffffffffffffffffffffffffff163373ffffffffffffffffffffffffffffffffffffffff16148015610b0a57508160010160149054906101000a900460ff16155b15610b315760018260010160146101000a81548160ff021916908315150217905550600190505b8015610c7c57600073ffffffffffffffffffffffffffffffffffffffff168260020160009054906101000a900473ffffffffffffffffffffffffffffffffffffffff1673ffffffffffffffffffffffffffffffffffffffff161415610bd857828260020160006101000a81548173ffffffffffffffffffffffffffffffffffffffff021916908373ffffffffffffffffffffffffffffffffffffffff160217905550610c75565b8273ffffffffffffffffffffffffffffffffffffffff168260020160009054906101000a900473ffffffffffffffffffffffffffffffffffffffff1673ffffffffffffffffffffffffffffffffffffffff161415610c7457828260030160006101000a81548173ffffffffffffffffffffffffffffffffffffffff021916908373ffffffffffffffffffffffffffffffffffffffff1602179055505b5b5050610c8d565b505b60001515610c8b57600080fd5b505b5050565b600160009054906101000a900473ffffffffffffffffffffffffffffffffffffffff1681565b6000809054906101000a900473ffffffffffffffffffffffffffffffffffffffff1681565b6000809054906101000a900473ffffffffffffffffffffffffffffffffffffffff1673ffffffffffffffffffffffffffffffffffffffff163373ffffffffffffffffffffffffffffffffffffffff161415610d735780600160006101000a81548173ffffffffffffffffffffffffffffffffffffffff021916908373ffffffffffffffffffffffffffffffffffffffff1602179055505b50565b6000809054906101000a900473ffffffffffffffffffffffffffffffffffffffff1673ffffffffffffffffffffffffffffffffffffffff163373ffffffffffffffffffffffffffffffffffffffff161415610e0e576000600160006101000a81548173ffffffffffffffffffffffffffffffffffffffff021916908373ffffffffffffffffffffffffffffffffffffffff1602179055505b565b600160009054906101000a900473ffffffffffffffffffffffffffffffffffffffff1673ffffffffffffffffffffffffffffffffffffffff163373ffffffffffffffffffffffffffffffffffffffff161415610ec957600160009054906101000a900473ffffffffffffffffffffffffffffffffffffffff166000806101000a81548173ffffffffffffffffffffffffffffffffffffffff021916908373ffffffffffffffffffffffffffffffffffffffff1602179055505b565b60e060405190810160405280600073ffffffffffffffffffffffffffffffffffffffff168152602001600015158152602001600073ffffffffffffffffffffffffffffffffffffffff168152602001600015158152602001600073ffffffffffffffffffffffffffffffffffffffff168152602001600073ffffffffffffffffffffffffffffffffffffffff168152602001600015158152509056fea165627a7a72305820499bed705ba06adbe891686c14954b6053395ff1662e9a9f01a740d11fbb31d70029",
  "source": "pragma solidity >=0.4.21 <0.6.0;\n\ncontract TournamentMatches {\n\n  struct Match{\n    address playerOne;\n    bool oneClaimed;\n    address playerTwo;\n    bool twoClaimed;\n    address claim;\n    address winner;\n    bool valid;\n  }\n\n  address public owner;\n  address public transfer;\n\n  uint public currentMatch;\n  mapping (uint => Match) public matches;\n\n  constructor() public {\n    owner = msg.sender;\n  }\n\n  modifier onlyOwner() {\n    if (msg.sender == owner) _;\n  }\n\n  function createOwnershipOffer(address newOwner) public onlyOwner {\n    transfer = newOwner;\n  }\n\n  function revokeOwnershipOffer() public onlyOwner {\n    transfer = address(0x0);\n  }\n\n  function acceptOwnershipOffer() public {\n    if(msg.sender == transfer){\n      owner = transfer;\n    }\n  }\n\n  function createMatch(address p1, address p2) public onlyOwner {\n    currentMatch++;\n    Match memory _new;\n    _new.playerOne = p1;\n    _new.playerTwo = p2;\n    matches[currentMatch] = _new;\n  }\n\n  function validateMatch(uint _match, bool status) public onlyOwner {\n    matches[_match].valid = status;\n  }\n\n  function callMatch(uint _num, address winner) public {\n    Match storage _match = matches[_num];\n    require(_match.valid);\n    // Owner over-ride (manual)\n    if(msg.sender == owner){\n      _match.claim = address(0x0);\n      _match.winner = winner;\n      // Done with work\n      return;\n    }\n    // If one of the players calls with a winner:\n    // 1. Make sure they haven't claimed\n    // 2. Check if they're the first to report and claim if so\n    // 3. If they're not the first, see if they agree and set a winner or d-lock\n    if((msg.sender == _match.playerOne)||(msg.sender == _match.playerTwo)){\n      // NOTE: This will deadlock after two claims - then requires arbitration\n      bool setClaim = false;\n      if((msg.sender == _match.playerOne) && (!_match.oneClaimed)){\n        _match.oneClaimed = true;\n        setClaim = true;\n      }\n      if((msg.sender == _match.playerTwo) && (!_match.twoClaimed)){\n        _match.twoClaimed = true;\n        setClaim = true;\n      }\n      if(setClaim){\n        if(_match.claim == address(0x0)){\n          _match.claim = winner;\n        } else if (_match.claim == winner){\n          _match.winner = winner;\n        }\n        // Done with work, success\n        return;\n      }\n    }\n    // CRITICAL FAILURES\n    // Sender must be owner or player\n    // Player can only claim once\n    require(false);\n  }\n\n}\n",
  "sourcePath": "C:/Users/Andrew/Desktop/Projects/DOCKER/GSTACK/Scripts/ChainJS/contracts/TournamentMatches.sol",
  "compiler": {
    "name": "solc",
    "version": "0.5.0+commit.1d4f565a.Emscripten.clang"
  },
  "schemaVersion": "3.0.3",
  "updatedAt": "2019-03-21T07:05:59.105Z",
  "devdoc": {
    "methods": {}
  },
  "userdoc": {
    "methods": {}
  }
}